:020000040800F2
:10000000105300209D010008731F0008211E0008E6
:10001000711F00082508000845290008000000009D
:10002000000000000000000000000000492200085D
:100030002708000800000000951F00084B22000858
:10004000B7010008B7010008B7010008B7010008B0
:10005000B7010008B7010008B7010008B7010008A0
:10006000B7010008B7010008B7010008B701000890
:10007000B7010008B7010008B7010008B701000880
:10008000B7010008B7010008B7010008B701000870
:10009000B7010008B7010008B7010008B701000860
:1000A000B7010008B7010008B7010008B701000850
:1000B000B7010008B7010008B7010008B701000840
:1000C000B7010008B7010008B7010008B701000830
:1000D000B70100082D290008B7010008B701000882
:1000E000B7010008B7010008B7010008B701000810
:1000F000B7010008B7010008B7010008B701000800
:10010000B7010008B7010008B7010008B7010008EF
:10011000B7010008B701000841230008B701000833
:10012000B7010008B7010008B7010008B7010008CF
:10013000B7010008B7010008B7010008B7010008BF
:10014000B7010008B7010008B7010008B7010008AF
:10015000B7010008B7010008B7010008B70100089F
:10016000B7010008B7010008B7010008B70100088F
:10017000B7010008B70100080000000000000000FF
:10018000B7010008B7010008DFF80CD000F084F9CF
:1001900000480047652900081053002006488047A2
:1001A00006480047FEE7FEE7FEE7FEE7FEE7FEE75C
:1001B000FEE7FEE7FEE7FEE7FD22000889010008F2
:1001C0002DE9F05F0546002092469B46884606468C
:1001D000814640241BE0284641464746224600F01F
:1001E00009F953465A46C01A914110D31146184690
:1001F000224600F0F0F82D1A67EB01084F46224620
:100200000120002100F0E7F817EB00094E41201E05
:10021000A4F10104DFDC484631462A46434600F09B
:1002200000B830BCBDE8C09FD2B201E000F8012B9D
:10023000491EFBD270470022F6E710B513460A4666
:1002400004461946FFF7F0FF204610BD0FB400B575
:100250008DB010A909900B9000914FF0FF300A90DB
:1002600000200C9005480690054807906A4609A8AA
:100270000F9900F0E3F80DB05DF814FB5904000885
:10028000770400082DE9FF5F1D464FF0FF3BD5E9DD
:10029000014691465F464FF00008A9697F1C01980E
:1002A0008847296A824688470028F6D1BAF1FF3F7D
:1002B0000CD024F4C064002E19DD600614D5BAF108
:1002C0002B0F09D0BAF12D0F0ED103E0584604B020
:1002D00000F07EB844F48064A9697F1C01988847C7
:1002E000761E8246002E02DDBAF1300F03D0B9F13E
:1002F000000F26D032E0A969761E44F400747F1CFA
:10030000019888478246002E05DDBAF1780F06D0A5
:10031000BAF1580F03D0B9F1000F10D01EE0B9F1B7
:10032000000F02D0B9F1100F18D1A969761E24F47C
:1003300000747F1C019888478246102002E0082044
:1003400000E00A20814609E008FB0908A969761E39
:1003500044F400747F1C019888478246002E05DD16
:100360004946504600F056F80028EDDAE969019850
:100370008847A00502D46FF00100A8E7E00725D167
:10038000600613D5600502D5C8F1000000E04046C4
:1003900029680A1D2A600968220501D5087015E040
:1003A000220701D5088011E008600FE02868011DD0
:1003B00029600068210502D580F8008006E0210749
:1003C00002D5A0F8008001E0C0F8008038467EE742
:1003D00030BCBDE8C09F202A04DB203A00FA02F1BD
:1003E000002070479140C2F1200320FA03F3194323
:1003F00090407047202A04DB203A21FA02F00021C5
:10040000704721FA02F3D040C2F120029140084324
:10041000194670473A2800D2303820F02002412A8D
:1004200001D3A2F13700884201D34FF0FF3070476B
:10043000026811441378016018467047D16004497E
:1004400051610449116200211161114600F03CB86C
:1004500031040008BD040008426842B1016811F887
:10046000013B23B1521EC0E900121846704701211A
:10047000C160881E704742685AB1C368016843B9B9
:1004800083688B4205D0491E521CC0E9001200202F
:1004900070474FF0FF307047064C074D06E0E068AC
:1004A00040F0010394E8070098471034AC42F6D3BB
:1004B000FFF76EFE102B0008302B0008C0B24FF47F
:1004C000F05100F09BB900002DE9F34F8BB04FF0D5
:1004D000000801F10C000C464FF0010B46460DF1EF
:1004E000080A01906269012101989047051E2DD0EC
:1004F000252D2CD0216A8847C0B16269012101985D
:100500009047216A88470028F7D1411E6269019807
:10051000904700E0761CA1690B988847216A8847BC
:100520000028F7D1E1690B988847DBE7A1690B98B0
:1005300088470746A84201D1761CD3E7E1690B98AA
:1005400088477F1C02D1B8F1000F6FD046E1002729
:1005500062693D463946019890472A2804D162696C
:100560000121019890470125DFF8849262690121F9
:1005700001989047A0F130010A290AD24F45E5DCE5
:1005800007EB870100EB4107303FDFD445F0100552
:10059000ECE7E90601D46FF000476C280AD04C283C
:1005A00014D0682815D06A280DD074281CD07A2859
:1005B0001AD01DE062690121019890476C2802D091
:1005C00045F0040514E045F002050DE045F0200576
:1005D0000AE06269012101989047682802D045F03D
:1005E000080505E045F4006562690121019890471E
:1005F000C4E9015765283DD019DC58287AD00CDCB5
:10060000452837D004DC252826D0412831D131E0D7
:1006100046282FD047282CD12CE05B2877D06128A2
:1006200028D063287CD0642823D15AE0D0E06F28FA
:1006300048D008DC66281DD067281BD0692821D047
:100640006E2816D127E0702845D0732868D0752809
:1006500047D078280DD14DE0A1690B988847054611
:1006600025283FF469AFE1690B9888476D1C3FF47A
:100670006AAFB3E023466A466FF001000B99AFF30F
:1006800000809EE045F040006060A80723464FF0E0
:10069000000236D43EE0E8077FF447AF2068011D32
:1006A00021600068290501D506701BE7290701D5DF
:1006B000068017E7A90703D5F117C0E9006111E724
:1006C00006600FE745F040006060A80723464FF042
:1006D000080216D41EE040F60E0125EA0100606013
:1006E00016E045F040006060A80723464FF00A027C
:1006F00007D40FE045F040006060A80708D5234606
:1007000010226FF001000B99AFF3008059E007E071
:10071000234610226FF001000B99FFF7B3FD50E064
:100720004FF000094F464B46632802D05B2806D0A5
:1007300040E0E80601D40120A06001273AE06269A8
:100740000121019890475E2805D14FF001096269A7
:10075000494601989047216939B900210A46534614
:1007600043F82120491C0829FADBB0B3216969B993
:10077000C11700EBD16253110AEB830122F01F0273
:10078000821A01200B68904003430B6062690121CB
:10079000019890475D28E8D1B9F1000F09D00020F9
:1007A000514651F82020D24341F82020401C08280F
:1007B000F7DB02AB224600976FF001000B99AFF315
:1007C000008000280CDA401C08D1BBF1000F05D0D6
:1007D0004FF0FF300DB000F00DB8FFE74046F9E7ED
:1007E000E90701D108F1010806444FF0000B79E652
:1007F000CCCCCC0C30BCBDE8C08F00007F2801D928
:10080000002208E0064A02EB5002C007127800D12D
:10081000120902F00F0201209040084070470000CA
:10082000D02A0008FEE770472DE9F04704464079DA
:10083000002715460E46012809D04FF0010984F81B
:100840000590022020713068042803D044E0022083
:10085000BDE8F0874FF003080DBB00F009FA07462A
:1008600005E000BF00F004FAC01B01280FD8206883
:10087000406B0004F6D4012000F0FCF82168B06958
:10088000086416E000F0F4F9C01B012807D92069BC
:1008900040F00800206184F804800320D8E7206835
:1008A000406B0028EEDB012000F0E4F82168B0691D
:1008B00048642068816C40F2FF32AA409143F2699B
:1008C000AA40114381642068C16CFF22AA40914371
:1008D000326AAA401143C1643069012808D12268F4
:1008E000916B1F20A84081437069A8400843906322
:1008F0002268D06B0721A9408843B3683168194347
:10090000F3681943A9400143D163206801684FF49B
:100910008042AA40914301602268116840F6FC7051
:10092000A84081437068A8400843106020680168AF
:10093000C022AA409143016084F8049000206071B5
:1009400086E770B5040003D02079002510B105E0DA
:10095000012070BD6571204600F008F8022020716A
:10096000256101202071002070BD000010B586B007
:10097000044614216846FFF75EFC0D492068884252
:1009800013D10C48816D41F000518165806D69463D
:1009900000F00050059030200090032001900020CE
:1009A00002904FF0904000F073F806B010BD0000C8
:1009B000007400400010024018B5046800940068FC
:1009C000104421B1143000900360002018BD08309D
:1009D000F9E730B54279012A12D00122427102238F
:1009E000037103681D6802FA01F425431D600029A4
:1009F00001680B6806D0C3F383430F2B0AD00DE0C8
:100A0000022030BDC3F383030F2B07D14B6843F0A3
:100A1000010302E04B6843F002034B6002710021C6
:100A20004171084630BD10B590F825100024022908
:100A300003D00421C16301241AE001680A6822F08E
:100A40000E020A6001680A6822F001020A6090F84A
:100A50004410036C01F01C02012101FA02F25A60F9
:100A600080F82510002180F82410816B01B188479F
:100A7000204610BD70B5044600F0FAF80546601C2B
:100A800000D0641C00F0F4F8401BA042FAD370BD03
:100A90002DE9F84FDFF898B100234FF0010C4FF02B
:100AA000030A4FF00F090BF1040EB9E00CFA03F43E
:100AB000224070D04D68022D01D0122D0ED1DD08DC
:100AC00000EB8508D8F820505E07F70E09FA07F604
:100AD000B5430E69BE402E43C8F8206007685E002B
:100AE00091F804800AFA06F508F00308AF4308FA03
:100AF00006F848EA0708C0F800804F68012F05D0C3
:100B0000022F03D0112F01D0122F13D1D0F808805B
:100B1000CF6828EA0508B74047EA08078760D0F899
:100B200004800F7928EA0408C7F300179F4047EABA
:100B300008074760D1F804806FEA0807BF0706D1AD
:100B4000C76AA743C8F3C0049C403C43C462C4685E
:100B5000AC438D68B5402543C5604C68E4005ED564
:100B6000344C256E45F001052566246E23F00305FF
:100B700004F001040094304C2E19B4689D072F0F27
:100B800009FA07F5AC43B0F1904F05D02B4DA842C0
:100B900004D101251CE042E0002519E0284DA842BF
:100BA00001D1022514E0274DA84201D103250FE011
:100BB000254DA84201D104250AE0244DA84201D1C7
:100BC000052505E0224DA84201D1062500E00725B4
:100BD000BD402543B560DBF800405D464E68944358
:100BE000F60300D514432C60DEF8004075464E68CD
:100BF0009443B60300D514432C600D4D08352C6882
:100C00004E689443F60200D514432C60084D0C3511
:100C10002C684E689443B60200D514432C605B1CCC
:100C20000A6832FA03F57FF441AF00F013B8000010
:100C30000004014000100240000001400004004890
:100C400000080048000C004800100048001400484C
:100C50000018004818BCBDE8E08F0069084000D0CB
:100C6000012070470AB181617047816270470000BE
:100C70000148006870470000100000200248016829
:100C8000491C0160704700001000002010B50320CF
:100C900000F088F8002000F005F800F017F80020B8
:100CA00010BD000010B5044607484FF47A71006883
:100CB000B0FBF1F000F0EFFD00222146501E00F0E5
:100CC00051F8002010BD0000140000201E4808B597
:100CD000016E41F001010166016E01F00101009118
:100CE000816D41F080518165806D00F080500090F1
:100CF000032000F057F8002211466FF00B0000F0BF
:100D000031F8002211466FF00A0000F02BF80022A3
:100D100011466FF0090000F025F800221146501F1F
:100D200000F020F800221146101F00F01BF80022EE
:100D30001146901E00F016F80022BDE8084011464A
:100D4000501E00F00FB800000010024000F01F021B
:100D5000012191404009800000F1E020C0F800111D
:100D600070470000F0B40E4B1B680C46C3F302231F
:100D7000C3F10705042D00D90425191D072901D247
:100D8000002300E0DB1E012606FA05F1491E214082
:100D900099409E40761E16403143F0BC01F0EAB8FF
:100DA0000CED00E0064900F0070208684FF6FF036B
:100DB000184040EA0220034A1043086070470000D0
:100DC0000CED00E00000FA051549B0F5007F086859
:100DD000C0F3412009D0022805D0086820F4C06083
:100DE00040F480600860002070470128FBD008684C
:100DF00020F4C06040F4007008600A480A4A0068A5
:100E0000B0FBF2F03222504300E0401E10B14A69BC
:100E10005205FAD448694005E5D503207047000023
:100E2000007000401400002040420F00024800689B
:100E300000F4C06070470000007000402DE9F84FDA
:100E4000044600270088E54D3E46010504F1200BCD
:100E50001DD5606E78B1B0F5800F11D0B0F5000FE0
:100E600004D0B0F5400F22D001270FE0E86840F42D
:100E70008030E8601BE00021201D01F08DF803E0C8
:100E80000021584601F01EF9070010D03E46208888
:100E9000C00426D5A06EC0B1B0F1807F1AD0B0F1E9
:100EA000007F0DD0B0F1407F19D0012718E0D5F8B0
:100EB0008800616E20F440000843C5F88800E6E72A
:100EC000E86840F48030E86009E00021201D01F06E
:100ED00063F803E00021584601F0F4F80746F7B143
:100EE0003E46206880033AD5A86D4FF00008C00048
:100EF00009D4A86D40F08050A865A86D4FF0010896
:100F000000F080500090DFF8D8A2DAF8001041F429
:100F10008071CAF80010FFF7ABFE814610E0D5F8EB
:100F20008800A16E20F040700843C5F88800D8E71B
:100F3000FFF79EFEA0EB0900022801D9032705E078
:100F4000DAF80000C005F3D5002F7CD04FEA070681
:100F5000B8F1000F03D0A86D20F08050A86520786C
:100F6000C00707D0D5F88800A16B20F00300084324
:100F7000C5F888002078800707D5D5F88800E16B90
:100F800020F00C000843C5F888002078400707D5FA
:100F9000D5F88800216C20F030000843C5F888009F
:100FA0002078000707D5D5F88800616C20F0C000D4
:100FB0000843C5F888002078C00607D5D5F8880012
:100FC000A16C20F440700843C5F8880020788006A2
:100FD00007D5D5F88800E16C20F440600843C5F8D7
:100FE00088002088800507D5D5F88800E16D20F4B9
:100FF00040200843C5F888002088400507D5D5F86B
:101000008800216E20F440100843C5F8880020783D
:10101000400607D5D5F88800216D20F440500843DC
:10102000C5F888002078000607D5D5F88800616DDE
:1010300020F440400843C5F888002088C00509D541
:10104000D5F8880000E01CE0A16D20F44030084392
:10105000C5F8880020884FF0006780044FF0806852
:101060004FD5D5F88800E16E20F040600843C5F800
:101070008800E06EB8423CD1E86840F48010E86037
:101080003FE0D5F8900010F4407015D0D4F88410EB
:10109000814211D0D5F89000D5F8901020F440701E
:1010A00041F48031C5F89010D5F8901021F48031CA
:1010B000C5F89010C5F89000C00710D0FFF7D8FD14
:1010C000074641F2883906E0FFF7D2FDC11B4945CA
:1010D00001D903263CE7D5F890008007F4D5D5F870
:1010E0009000D4F8841020F440700843C5F89000B4
:1010F0002EE7404505D10121201D00F04DFF00B134
:1011000006462068000317D5D5F88800216F20F027
:1011100040600843C5F88800206FB84204D1E868F1
:1011200040F48010E86007E0404505D10121201D12
:1011300000F032FF00B106462068400317D5D5F80D
:101140008800616F20F040600843C5F88800606F38
:10115000B84204D1E86840F48010E86007E04045F8
:1011600005D10121201D00F017FF00B1064620889F
:1011700040041AD5D5F88800A16F20F040500843EC
:10118000C5F88800A06FB0F1805F03D0B0F1005FB8
:1011900005D00AE00221201D00F0FEFE03E002213E
:1011A000584600F08FFF00B106462088000407D59E
:1011B000D5F88800E16F20F080400843C5F888002A
:1011C0002068C00307D555F8880FD4F8801020F0A8
:1011D000004008432860304600F004B80010024088
:1011E0000070004018BCBDE8E08F00002DE9F0471A
:1011F0000F46050058D03E4E306800F00700B84258
:1012000009D2306820F0070038433060306800F0C1
:101210000700B84248D12878364CC0072CD06868FF
:10122000032811D0022812D0216898B1490500295D
:101230003ADAA16821F003010143A160FFF718FD2C
:10124000804641F2883910E021688901EFE7216882
:101250008903ECE78907EAE7FFF70AFDA0EB08013D
:10126000494502D90320BDE8F087A068696800F00D
:101270000C00B0EB810FEFD12878800705D5A0686E
:10128000A96820F0F0000843A060306800F0070073
:10129000B8420BD9306820F007003843306030681E
:1012A00000F00700B84201D00120DCE728784007B1
:1012B00005D5A068E96820F4E0600843A0602878BC
:1012C000000706D5A068296920F4605040EAC100F3
:1012D000A06000F03BF8A168074AC1F30311515C1C
:1012E000C840064908600020FFF7DCFC0020BAE790
:1012F0000020024000100240882A0008140000204C
:1013000001480068704700001400002004480549A7
:1013100000688968044AC1F30221515CC8407047E3
:101320001400002000100240C82A000804480549A3
:1013300000688968044AC1F3C221515CC840704703
:101340001400002000100240C82A000830B52D49C2
:10135000002318468A682C4C12F00C0F4FEA6405E3
:1013600014D08A68C2F38102032A04D1CA6802F049
:101370000302012A0AD08A68C2F38102012A19D025
:101380008A68C2F38102022A16D016E00A681207A0
:1013900004D4D1F89420C2F3032202E00A68C2F315
:1013A00003121A4B53F822308A6812F00C0F04D142
:1013B000184602E0204600E028468A68C2F381020F
:1013C000032A1DD1C868CA6800F00300C2F30212E4
:1013D000521C022804D0032805D0B3FBF2F004E02D
:1013E000B4FBF2F001E0B5FBF2F0CA68C968C2F3E1
:1013F00006225043C1F34161491C4900B0FBF1F0A2
:1014000030BD0000001002400024F400982A0008BB
:101410002DE9F84304007DD02078FF4DC0065DD54E
:10142000A86810F00C0F0AD0A0690028286873D0B3
:1014300040F001002860FFF71BFC064655E02868D5
:10144000800702D5A0690028E5D0216A2868000736
:1014500003D5286800F0F00004E0D5F89400F022ED
:1014600002EA1010814216D9084600F0AFFE0028AB
:1014700050D1286840F0080028602868216A20F0D0
:10148000F000084328606868E16920F47F4040EA82
:101490000120686015E0286840F00800286028688E
:1014A000216A20F0F000084328606868E16920F4B0
:1014B0007F4040EA01206860206A00F087FE002833
:1014C000D6D1FFF743FFA968D44AC1F30311515C99
:1014D000C840D34908600020FFF7E4FB2CE000BFC0
:1014E000FFF7C6FB801B02287ED828688007F7D547
:1014F000286840F0080028602868216A20F0F00081
:10150000084328606868E16920F47F4040EA0120D0
:10151000686011E0B2E0FFE720F001002860FFF70B
:10152000A7FB064605E000BFFFF7A2FB801B0228D1
:10153000DAD828688007F7D42078C00748D0A86890
:10154000C0F3810002281DD0A868C0F381000328E1
:1015500003D1E868C043800714D06068B0F5803FCD
:1015600017D0B0F5A02F286817D020F4803028605D
:10157000286820F4802028606068E0B1FFF778FBDD
:10158000064614E02868800322D56068002875D0DC
:101590001EE0286840F48030EDE740F480202860A9
:1015A000F7E700BFFFF764FB801B64289CD828681E
:1015B0008003F7D50CE0FFF75BFB064605E000BFB4
:1015C000FFF756FB801B64288ED828688003F7D469
:1015D0002078800742D5A868C0F38100012816D082
:1015E000A868C0F3810000E0A9E0032804D1E868FE
:1015F00000F0030002280AD0E068002828681DD007
:1016000040F480702860FFF733FB06460BE0286843
:1016100040050BD5E0680028B9D007E0FFF728FBAC
:10162000801B022884D828684005F7D56868217C8B
:1016300020F0F85040EA016068600FE020F480700C
:101640002860FFF715FB064605E000BFFFF710FB1B
:10165000801B022873D828684005F7D4207800073B
:1016600029D560690028D5F8940013D040F0010016
:10167000C5F89400FFF7FCFA064606E0FBE000BF61
:10168000FFF7F6FA801B022859D8D5F89400800796
:10169000F6D510E020F00100C5F89400FFF7E8FA55
:1016A000064604E0FFF7E4FA801B022847D8D5F885
:1016B00094008007F6D42078400763D5A86D0026F3
:1016C000C00008D4A86D40F08050A865A86D012620
:1016D00000F08050009053480168C90511D401689A
:1016E000804641F480710160FFF7C2FA074604E0CA
:1016F000FFF7BEFAC01B022821D8D8F80000C005A9
:10170000F6D5A068012815D00528D5F8900017D087
:1017100020F00100C5F89000D5F8900020F00400FA
:10172000C5F89000A06841F28838C8B1FFF7A0FA68
:10173000074610E0D5F8900040F00100F0E777E0B0
:1017400040F00400C5F89000F4E700BFFFF790FAFE
:10175000C11B41456CD8D5F890008007F6D50CE048
:10176000FFF786FA074604E0FFF782FAC11B4145FE
:1017700079D8D5F890008007F6D41EB1A86D20F076
:101780008050A865A06AE0B3A968C1F3810103296C
:1017900072D00228286820F08070286011D0286854
:1017A000000106D42868800003D4E86820F0030014
:1017B000E860E8681C490840E860FFF759FA044609
:1017C00054E0FFF755FA064605E000BFFFF750FA70
:1017D000801B022847D828688001F7D4206BE16A73
:1017E000000110380843616BA26B0902120941EA3B
:1017F00042410843A18F0D4A490802EB4151084379
:1018000000E036E094F840104908120102EB416113
:101810000843E86028680CE000100240882A0008AD
:101820001400002000700040FFFFEEFE0000E0FF0B
:1018300019E040F080702860E86840F08070E8604F
:10184000FFF716FA044604E0FFF712FA001B02281D
:1018500009D828688001F7D50BE000BFFFF708FA28
:10186000001B022802D90320BDE8F8832868800104
:10187000F4D40020F8E7FFE70120F5E74FF0E0217E
:101880000428086903D020F004000861704740F084
:101890000400FAE7704710B5401EB0F1807F01D315
:1018A000012010BD4FF0E02460610F21601700F0AF
:1018B00061FB0020A06107202061002010BD10B551
:1018C000FFF7E8FF10BD70477047704770B590F89C
:1018D0003C20012A24D0012480F83C40022280F8D8
:1018E0003D200268536895680E4EB24202D00E4EFB
:1018F000B24203D123F470064B68334323F07006E1
:101900000B688968334325F08005294353600268DA
:10191000916080F83D40002180F83C10084670BD81
:10192000022070BD002C01400034014010B50400BD
:1019300003D094F83D0010B107E0012010BD002055
:1019400084F83C00204600F00DF8022084F83D00A9
:10195000211D206800F000FD012084F83D000020DA
:1019600010BD000008B500680B49884212D10B4831
:10197000816D41F010018165806D002200F0100042
:10198000009011463620FFF7EDF9BDE808403620FB
:10199000FFF7DCB908BD0000001000400010024055
:1019A0000168CA6842F00102CA600068826807499B
:1019B0000A40062A08D082680A40B2F5803F03D068
:1019C000016841F00101016000207047070001003B
:1019D000704770B50446006801694FF00005C943BF
:1019E000890715D4C168C943890711D4E91E01616B
:1019F00001202077206880698007204602D0FFF709
:101A0000E7FF04E000F0A7F8204600F0A5F82577EE
:101A100020680169C943490717D4C168C943490708
:101A200013D46FF0040101610220207720688069DF
:101A300010F4407F204602D0FFF7CAFF04E000F018
:101A40008AF8204600F088F8257720680169C943A4
:101A5000090716D4C168C943090712D46FF00801F9
:101A60000161042020772068C0698007204602D0E9
:101A7000FFF7AEFF04E000F06EF8204600F06CF8CF
:101A8000257720680169C943C90617D4C168C943CD
:101A9000C90613D46FF01001016108202077206877
:101AA000C06910F4407F204602D0FFF791FF04E0A8
:101AB00000F051F8204600F04FF8257720680169C2
:101AC000C943C90708D1C168C943C90704D1891EE0
:101AD0000161204600F041F820680169C943090608
:101AE00009D4C168C943090605D46FF080010161BA
:101AF0002046FFF7E9FE20680169C943C90509D4FA
:101B0000C168C943090605D46FF48071016120469C
:101B1000FFF7D9FE20680169C943490609D4C168A5
:101B2000C943490605D46FF040010161204600F029
:101B300015F820680169C94389060BD4C168C943F7
:101B4000890607D46FF0200101612046BDE870408E
:101B5000FFF7BBBE70BD7047704770477047704756
:101B6000704700002DE9F04102680446D069116811
:101B7000936810F00F0F4FF000055BD003F00106E3
:101B800001F49077374369D0C70707D0CF0505D553
:101B900001271762626F42F001026267820708D56F
:101BA000DA0706D0276802223A62626F42F0040226
:101BB0006267420708D5DA0706D0236804221A6252
:101BC000626F42F00202626702070AD501F020024A
:101BD000324306D0236808221A62626F42F008027C
:101BE0006267626F002A32D0800605D5880603D569
:101BF000216E09B120468847606F000703D4206832
:101C00008068400625D5204600F0A2FC2068816847
:101C1000490619D5816821F040018160E06E98B1D4
:101C200020498163E06EFEF7FEFE00280FD0E06ED3
:101C3000816B06E0860611D58E060FD5216E1EE05B
:101C40002046BDE8F04108472046FFF789FFBDE880
:101C5000F0812046FFF784FF6567F8E7C60209D5E3
:101C60005B0207D54FF4801010622046BDE8F041BA
:101C7000FFF775BF030605D50B0603D5616E002976
:101C8000DED1E4E74006E2D54806E0D511682046FB
:101C900021F040011160202184F87110656600F088
:101CA000BEF8D4E73D25000810B5040003D094F831
:101CB000710010B107E0012010BD002084F8700011
:101CC000204600F027F8242084F87100206801687D
:101CD00021F001010160204600F0A6FC0128EBD0B4
:101CE000606A10B1204600F097FB2068416821F43B
:101CF000904141602068816821F02A01816020685C
:101D0000016841F0010101602046BDE8104000F08B
:101D1000E7BB000000B50068124987B088421ED1B9
:101D20001148016E41F480410166006E694600F47D
:101D300080400590C0200090022001900020029079
:101D400003200390072004900848FEF7A1FE00221C
:101D500011462520FFF706F82520FEF7F7FF07B00C
:101D600000BD00000038014000100240000400489F
:101D700030B590F87230202B4AD1B1B1AAB190F8A9
:101D80007030012B44D0012380F870304165A0F8F9
:101D90005820A0F85A20002202661D038168FF2304
:101DA000A94207D1016911B10CE0012030BD40F218
:101DB000FF110DE07F2419B1B1F1805F05D009E07A
:101DC000016901BBA0F85C3004E00169D9B13F2191
:101DD000A0F85C104267222180F8721001688B68BD
:101DE00043F001038B608168A94201D1016969B1A7
:101DF0000849016680F870200068016841F490711C
:101E00000160002030BDA0F85C40E3E70249F0E744
:101E1000022030BDCD2500087125000870477047AD
:101E2000FEE7000010B58AB024216846FEF703FAE9
:101E300010490F4808600846FEF783FD00B1FEE731
:101E400000240094019402940394224669460948B0
:101E50000494FEF7E9FC00B1FEE71022694605484C
:101E60000394FEF7E1FC002800D0FEE70AB010BDA5
:101E700000740040D0000020184810B5C16C86B036
:101E800041F00101C164C16C01F001010591C16C17
:101E900041F00201C164C16C01F002010591C16C05
:101EA00041F00401C164C06C002400F004000590FE
:101EB0004FF40050CDE90004694609480294FEF74A
:101EC000E7FD4FF4804000900120CDE90104694610
:101ED0000448FEF7DDFD06B010BD00000010024012
:101EE00000080048000400483EB500241148009452
:101EF00001940F49029401600A21C0E901144FF4D2
:101F00007A718461C160FFF711FD00B1FEE70094B2
:101F1000694608480294FFF7D9FC00B1FEE70022A9
:101F200011463620FEF71EFF3620FEF70FFF3EBD9E
:101F300000100040900000200C4810B50A490160D4
:101F40004FF4E1314160002181600C22C160C0E9A1
:101F500004128161C16101624162FFF7A5FE0028A0
:101F600000D0FEE710BD000000380140180000203E
:101F7000FEE770470907090E002806DA00F00F0097
:101F800000F1E02080F8141D704700F1E02080F897
:101F900000147047704700002DE9F041444C05469D
:101FA0008846E0680026810728680DD0E16801F0C6
:101FB0000301814216D1A8B1E0686968C0F302103C
:101FC000401C88420ED120E0012804D0022805D010
:101FD000032807D108E02168890701E02168490545
:101FE000002907DB01265FE02168890302D421680C
:101FF0004903F5E7E1686A686FF00F0321F07301A8
:1020000003EB021211430143E160206820F080607D
:102010002060FEF72DFE074605E000BFFEF728FE14
:10202000C01B022837D820680001F7D4B8F1000F90
:1020300018D0B8F1010F1ED0287D4FF07E41400826
:1020400001EB4060A96840EA01202169194A11406A
:1020500008432061206840F080602060FEF708FEA1
:1020600007461AE0A868E9680002090940EA414009
:102070002169114AEBE7288A1049400801EB4050DA
:10208000A96840EA012021690D4AE0E7FEF7F0FD6A
:10209000C01B022801D9032606E020680001F5D5FF
:1020A0002069A969084320613046BDE8F08100003D
:1020B00000100240FF80FFF9FF80FDFF0000E0FFFD
:1020C000FF809FFF2DE9F0413D4C06468846E068C1
:1020D0000025810730680DD0E16801F003018142DD
:1020E00016D1A8B1E0687168C0F30210401C8842A4
:1020F0000ED120E0012804D0022805D0032807D102
:1021000008E02168890701E021684905002907DB0B
:10211000012551E02168890302D421684903F5E7CC
:10212000E16872686FF00F0321F0730103EB021294
:1021300011430143E160206820F080502060FEF7E9
:1021400097FD074605E000BFFEF792FDC01B022881
:1021500029D820688000F7D4B8F1000F15D0307C62
:102160004FF07E41400801EB4060B16840EA012039
:102170006169144A114008436061206840F0805052
:102180002060FEF775FD07460FE0B068F1680002B9
:10219000090940EA414061690B4AEBE7FEF768FD37
:1021A000C01B022801D9032506E020688000F5D570
:1021B00060697169084360612846BDE8F0810000EC
:1021C00000100240FF80FFF9FF80FDFFF8B51C4DB5
:1021D00006460024A86DC00002D5FEF727FE0DE0DC
:1021E000A86D40F08050A865A86D00F08050009068
:1021F000FEF71CFEA96D21F08051A965B0F5007FA6
:1022000004D0802E07D94FF003040AE0802E08D9AD
:10221000A02E01D804E001D1022402E0702E00D1EA
:1022200001240848016821F007012143016000688A
:1022300000F00700A04201D00120F8BD0020F8BD49
:102240000010024000200240704710B5FEF716FD56
:10225000BDE81040FFF733BBF0B5B9B010202290B5
:1022600001240025CDE9284502266020CDE92C6413
:102270002A9028200727CDE92E40CDE930763296E6
:1022800022A8FFF7C5F800B1FEE70F203390032026
:10229000CDE934053695042133A83795FEF7A6FF1E
:1022A00000B1FEE744F20100009000071E902020DC
:1022B000CDE902400194C0040E95CDE90660CDE958
:1022C00004766846FEF7BAFD00B1FEE74FF40070F1
:1022D000FEF77AFD00B1FEE7FFF712F84FF47A71CE
:1022E000B0FBF1F0FFF7D7FA0420FFF7C7FA00229E
:1022F0001146501EFEF736FD39B0F0BD0D4801689D
:1023000041F4700101600C48016841F00101016075
:10231000002181600268094B1A4002608214C26089
:10232000026822F48022026081610249C003803980
:102330000860704788ED00E000100240FFFFF6EAF9
:1023400010B50348FFF745FB02490120086010BDA6
:1023500090000020000000202DE9F0470268264B85
:10236000264D274E274F284C4FF0804A984209D0DF
:10237000504507D0A84205D0B04203D0B84201D0A2
:10238000A04204D122F0700C4A6842EA0C02DFF845
:102390007CC0DFF87C80DFF87C9098420FD05045FD
:1023A0000DD0A8420BD0B04209D0B84207D0A0420D
:1023B00005D0604503D0404501D0484503D122F403
:1023C0004075CA682A434D6922F080022A430260A0
:1023D0008A68C2620A688262984207D0A04205D029
:1023E000604503D0404501D0484501D109690163EA
:1023F00001214161BDE8F087002C0140000400404C
:1024000000080040000C0040003401400040014042
:10241000004401400048014090F82410C90706D04C
:1024200001684A68836A22F400321A434A6090F8CD
:102430002410890706D501684A68C36A22F48032ED
:102440001A434A6090F82410490706D501684A6883
:10245000036B22F480221A434A6090F82410090783
:1024600006D501684A68436B22F400421A434A6069
:1024700090F82410C90606D501688A68836B22F497
:1024800080521A438A6090F82410890606D50168A4
:102490008A68C36B22F400521A438A6090F82410B1
:1024A000490611D501684A68036C22F480121A4368
:1024B0004A60016CB1F5801F06D101684A68436C1F
:1024C00022F4C0021A434A6090F82410090606D587
:1024D00001684A68806C22F4002202434A60704717
:1024E000F8B5002604464667FEF7C2FB054620689D
:1024F00000686FF07E47000708D52B4600224FF496
:1025000000112046009700F0DFF960B920680068EC
:1025100040070AD52B4600224FF480012046009741
:1025200000F0D2F908B10320F8BD202084F8710032
:1025300084F8720084F870600020F8BD10B5806ADD
:102540000021A0F85A10A0F85210FFF709FB10BDA7
:1025500001680A6822F490720A6001688A6822F0B1
:1025600001028A60202180F8721000210166704704
:1025700010B5B0F85C2090F872300168222B04D0BE
:10258000088B40F00800088310BD898C436D114012
:102590001980416D891C4165B0F85A10491E090423
:1025A000090CA0F85A10EFD101680A6822F4907261
:1025B0000A6001688A6822F001028A60202180F89E
:1025C000721000210166FFF729FC10BD10B5B0F8AC
:1025D0005C2090F872300168222B04D0088B40F008
:1025E0000800088310BD898C1140426D531C43655F
:1025F0001170B0F85A10491E0904090CA0F85A10BD
:10260000F0D101680A6822F490720A6001688A6851
:1026100022F001028A60202180F8721000210166F8
:10262000FFF7FCFB10BD00002DE9F04104460168F6
:1026300080682369E66918436369102500273343DE
:102640001843954A0B68954E334003430B6020684E
:102650004168E36821F44051194341602168A06951
:10266000914201D0236A18438B6823F430630343FB
:102670008B608B4B21688B4899420DD1D0F8880034
:1026800010F0030006D001285AD0022856D00328A3
:1026900059D157E0012556E0834B99420BD1D0F830
:1026A000880010F00C0047D0042849D0082845D0F5
:1026B0000C2848D146E07D4B99420BD1D0F88800D8
:1026C00010F0300038D010283AD0202836D03028EA
:1026D00039D137E0764B99420BD1D0F8880010F011
:1026E000C00029D040282BD0802827D0C0282AD14C
:1026F00028E0704B99420ED1D0F8880010F4407059
:102700001AD0B0F5807F1BD0B0F5007F16D0B0F5A1
:10271000407F18D116E0914215D1D0F8880010F40E
:10272000406009D0B0F5806F0AD0B0F5006F05D0D9
:10273000B0F5406F07D105E0002504E0022502E076
:10274000042500E008255C4B00264FF40040914230
:102750003DD135B1022D07D0042D07D0082D10D161
:1027600007E0FEF7D3FD03E0184602E0FEF7EEFDBA
:10277000A8B3626802EB4201814202D8B0EB023F8B
:1027800001D9012775E0DFF834815DB1022D0CD04D
:10279000042D13D0082DF4D150082905401846F116
:1027A000000105E0FEF7B2FD0AE050084449F5E7F4
:1027B0000023FDF705FDA0F5407156E0FEF7C6FDCC
:1027C0006268010E0302500818187141F0E7E169D0
:1027D0004FF6EF7881422FD1092DD2D200E048E0A8
:1027E000DFE805F006092005230505052600C8E7F2
:1027F000FEF78CFD01E0FEF799FD4100D4F80400DE
:1028000001EB5001B1FBF0F080B2A0F110014145A5
:10281000B7D84FF6F0710140C0F342000143206881
:10282000C16026E027496068EAE7FEF78FFDE4E72C
:102830004FF480316068E3E7092DA2D2DFE805F0AC
:1028400006091E052205050525009AE7FEF75EFD2F
:1028500001E0FEF76BFD0146606801EB500100BF2F
:10286000B1FBF0F080B2A0F11001414589D8216898
:10287000C860266638466666BDE8F081606803EB8E
:102880005001EDE7FEF762FDE5E7616800EB5100FE
:10289000B0FBF1F0E6E7000000800040F369FFEFD5
:1028A0000038014000100240004400400048004051
:1028B000004C0040005000400024F400FFFC0F00DA
:1028C000000024F40048E8012DE9F041984617463D
:1028D0000E460446069D1DE0681C1BD02DB1FEF778
:1028E000C7F9A0EB0800A84214D92068016821F4B8
:1028F000D07101602068816821F001018160202091
:1029000084F8710084F87200002084F870000320BD
:10291000BDE8F0812068C06936EA000004D00020DC
:10292000B842D9D00020F3E70120F9E710B50348F9
:10293000FFF718F902490120086010BD18000020B7
:1029400004000020FEE702E008C8121F08C1002AA8
:10295000FAD170477047002001E001C1121F002A20
:10296000FBD17047FEF792F9FFF776FCFFF784FA88
:10297000FFF7E2FAFFF7B8FAFFF754FA3348FFF728
:102980000FF8324800214030FEF723F82F4810217D
:102990004030FEF71EF82F4C2D4D0026E068012236
:1029A00029182A487838FFF7E3F9DFF8AC900027B8
:1029B0004FF4804860680028FCD06760E068295CBC
:1029C0000A2911D00D290FD02C2903D0401C411900
:1029D000E06003E000F044F82946E7601B4801226C
:1029E0007838FFF7C5F9E5E700F03AF820680128E4
:1029F000FCD1276041031948FEF72FF928B10022C6
:102A000041464846FEF72EF9F0E701224146484686
:102A1000FEF728F9A6F51C50103815D00B4D0022F2
:102A20005435114635F816004300A5F11400FDF7A2
:102A3000C3FF35F81600002243001021A5F1140051
:102A4000FDF7BAFF761CD1E70026CFE79000002003
:102A5000044F002000000020000400480008004847
:102A6000054A0649886802EB4002401C886004A1C0
:102A70000448FDF7EBBB0000E4000020000000204C
:102A800025687500044F00200000000000000000D1
:102A90000102030406070809A0860100400D030097
:102AA000801A060000350C0040420F0080841E0092
:102AB00000093D0000127A000024F40000366E0187
:102AC0000048E801006CDC02000000000102030481
:102AD000DDDDDDDDDCBBBBDDDDDDDDDDDDDDDDDD6B
:102AE00098888888888888887777777777888888AB
:102AF0008555555666666666666666666668888843
:102B00008333333222222222222222222228888D3B
:102B1000302B0008000000201800000046290008A3
:102B2000482B000818000020F85200005629000821
:102B30000000000000000000000000000000000095
:082B40000000000000093D0047
:040000050800018965
:00000001FF
